{
  "_format": "hh-sol-artifact-1",
  "contractName": "Mundo",
  "sourceName": "contracts/Mundo.sol",
  "abi": [
    {
      "inputs": [],
      "stateMutability": "nonpayable",
      "type": "constructor"
    },
    {
      "anonymous": false,
      "inputs": [
        {
          "indexed": false,
          "internalType": "address",
          "name": "buyer",
          "type": "address"
        },
        {
          "indexed": false,
          "internalType": "uint256",
          "name": "orderId",
          "type": "uint256"
        },
        {
          "indexed": false,
          "internalType": "uint256",
          "name": "itemId",
          "type": "uint256"
        }
      ],
      "name": "Buy",
      "type": "event"
    },
    {
      "anonymous": false,
      "inputs": [
        {
          "indexed": false,
          "internalType": "string",
          "name": "name",
          "type": "string"
        },
        {
          "indexed": false,
          "internalType": "uint256",
          "name": "cost",
          "type": "uint256"
        },
        {
          "indexed": false,
          "internalType": "uint256",
          "name": "quantity",
          "type": "uint256"
        }
      ],
      "name": "List",
      "type": "event"
    },
    {
      "inputs": [
        {
          "internalType": "uint256",
          "name": "_id",
          "type": "uint256"
        }
      ],
      "name": "buy",
      "outputs": [],
      "stateMutability": "payable",
      "type": "function"
    },
    {
      "inputs": [
        {
          "internalType": "uint256",
          "name": "itemId",
          "type": "uint256"
        }
      ],
      "name": "getItem",
      "outputs": [
        {
          "components": [
            {
              "internalType": "uint256",
              "name": "id",
              "type": "uint256"
            },
            {
              "internalType": "string",
              "name": "name",
              "type": "string"
            },
            {
              "internalType": "string",
              "name": "category",
              "type": "string"
            },
            {
              "internalType": "string",
              "name": "image",
              "type": "string"
            },
            {
              "internalType": "uint256",
              "name": "cost",
              "type": "uint256"
            },
            {
              "internalType": "uint256",
              "name": "rating",
              "type": "uint256"
            },
            {
              "internalType": "uint256",
              "name": "stock",
              "type": "uint256"
            },
            {
              "internalType": "string",
              "name": "description",
              "type": "string"
            }
          ],
          "internalType": "struct Mundo.Item",
          "name": "",
          "type": "tuple"
        }
      ],
      "stateMutability": "view",
      "type": "function"
    },
    {
      "inputs": [
        {
          "internalType": "uint256",
          "name": "",
          "type": "uint256"
        }
      ],
      "name": "items",
      "outputs": [
        {
          "internalType": "uint256",
          "name": "id",
          "type": "uint256"
        },
        {
          "internalType": "string",
          "name": "name",
          "type": "string"
        },
        {
          "internalType": "string",
          "name": "category",
          "type": "string"
        },
        {
          "internalType": "string",
          "name": "image",
          "type": "string"
        },
        {
          "internalType": "uint256",
          "name": "cost",
          "type": "uint256"
        },
        {
          "internalType": "uint256",
          "name": "rating",
          "type": "uint256"
        },
        {
          "internalType": "uint256",
          "name": "stock",
          "type": "uint256"
        },
        {
          "internalType": "string",
          "name": "description",
          "type": "string"
        }
      ],
      "stateMutability": "view",
      "type": "function"
    },
    {
      "inputs": [
        {
          "internalType": "uint256",
          "name": "_id",
          "type": "uint256"
        },
        {
          "internalType": "string",
          "name": "_name",
          "type": "string"
        },
        {
          "internalType": "string",
          "name": "_category",
          "type": "string"
        },
        {
          "internalType": "string",
          "name": "_image",
          "type": "string"
        },
        {
          "internalType": "uint256",
          "name": "_cost",
          "type": "uint256"
        },
        {
          "internalType": "uint256",
          "name": "_rating",
          "type": "uint256"
        },
        {
          "internalType": "uint256",
          "name": "_stock",
          "type": "uint256"
        },
        {
          "internalType": "string",
          "name": "_description",
          "type": "string"
        }
      ],
      "name": "list",
      "outputs": [],
      "stateMutability": "nonpayable",
      "type": "function"
    },
    {
      "inputs": [
        {
          "internalType": "address",
          "name": "",
          "type": "address"
        }
      ],
      "name": "orderCount",
      "outputs": [
        {
          "internalType": "uint256",
          "name": "",
          "type": "uint256"
        }
      ],
      "stateMutability": "view",
      "type": "function"
    },
    {
      "inputs": [
        {
          "internalType": "address",
          "name": "",
          "type": "address"
        },
        {
          "internalType": "uint256",
          "name": "",
          "type": "uint256"
        }
      ],
      "name": "orders",
      "outputs": [
        {
          "internalType": "uint256",
          "name": "time",
          "type": "uint256"
        },
        {
          "components": [
            {
              "internalType": "uint256",
              "name": "id",
              "type": "uint256"
            },
            {
              "internalType": "string",
              "name": "name",
              "type": "string"
            },
            {
              "internalType": "string",
              "name": "category",
              "type": "string"
            },
            {
              "internalType": "string",
              "name": "image",
              "type": "string"
            },
            {
              "internalType": "uint256",
              "name": "cost",
              "type": "uint256"
            },
            {
              "internalType": "uint256",
              "name": "rating",
              "type": "uint256"
            },
            {
              "internalType": "uint256",
              "name": "stock",
              "type": "uint256"
            },
            {
              "internalType": "string",
              "name": "description",
              "type": "string"
            }
          ],
          "internalType": "struct Mundo.Item",
          "name": "item",
          "type": "tuple"
        }
      ],
      "stateMutability": "view",
      "type": "function"
    },
    {
      "inputs": [],
      "name": "owner",
      "outputs": [
        {
          "internalType": "address",
          "name": "",
          "type": "address"
        }
      ],
      "stateMutability": "view",
      "type": "function"
    }
  ],
  "bytecode": "0x6080604052600180546001600160a01b03191673874069fa1eb16d44d622f2e0ca25eea172369bc117905534801561003657600080fd5b50600080546001600160a01b03191633179055611505806100586000396000f3fe6080604052600436106100705760003560e01c80638da5cb5b1161004e5780638da5cb5b14610114578063bfb231d21461014c578063d96a094a14610180578063f752055e1461019557600080fd5b80633129e77314610075578063713d856b146100ab578063793b8c6d146100e6575b600080fd5b34801561008157600080fd5b50610095610090366004610fa2565b6101b5565b6040516100a29190611096565b60405180910390f35b3480156100b757600080fd5b506100d86100c63660046110cc565b60046020526000908152604090205481565b6040519081526020016100a2565b3480156100f257600080fd5b506101066101013660046110e7565b610493565b6040516100a2929190611111565b34801561012057600080fd5b50600054610134906001600160a01b031681565b6040516001600160a01b0390911681526020016100a2565b34801561015857600080fd5b5061016c610167366004610fa2565b61073f565b6040516100a2989796959493929190611132565b61019361018e366004610fa2565b6109a0565b005b3480156101a157600080fd5b506101936101b036600461124c565b610e7f565b6101fd60405180610100016040528060008152602001606081526020016060815260200160608152602001600081526020016000815260200160008152602001606081525090565b60026000838152602001908152602001600020604051806101000160405290816000820154815260200160018201805461023690611320565b80601f016020809104026020016040519081016040528092919081815260200182805461026290611320565b80156102af5780601f10610284576101008083540402835291602001916102af565b820191906000526020600020905b81548152906001019060200180831161029257829003601f168201915b505050505081526020016002820180546102c890611320565b80601f01602080910402602001604051908101604052809291908181526020018280546102f490611320565b80156103415780601f1061031657610100808354040283529160200191610341565b820191906000526020600020905b81548152906001019060200180831161032457829003601f168201915b5050505050815260200160038201805461035a90611320565b80601f016020809104026020016040519081016040528092919081815260200182805461038690611320565b80156103d35780601f106103a8576101008083540402835291602001916103d3565b820191906000526020600020905b8154815290600101906020018083116103b657829003601f168201915b5050505050815260200160048201548152602001600582015481526020016006820154815260200160078201805461040a90611320565b80601f016020809104026020016040519081016040528092919081815260200182805461043690611320565b80156104835780601f1061045857610100808354040283529160200191610483565b820191906000526020600020905b81548152906001019060200180831161046657829003601f168201915b5050505050815250509050919050565b6003602052816000526040600020602052806000526040600020600091509150508060000154908060010160405180610100016040529081600082015481526020016001820180546104e490611320565b80601f016020809104026020016040519081016040528092919081815260200182805461051090611320565b801561055d5780601f106105325761010080835404028352916020019161055d565b820191906000526020600020905b81548152906001019060200180831161054057829003601f168201915b5050505050815260200160028201805461057690611320565b80601f01602080910402602001604051908101604052809291908181526020018280546105a290611320565b80156105ef5780601f106105c4576101008083540402835291602001916105ef565b820191906000526020600020905b8154815290600101906020018083116105d257829003601f168201915b5050505050815260200160038201805461060890611320565b80601f016020809104026020016040519081016040528092919081815260200182805461063490611320565b80156106815780601f1061065657610100808354040283529160200191610681565b820191906000526020600020905b81548152906001019060200180831161066457829003601f168201915b505050505081526020016004820154815260200160058201548152602001600682015481526020016007820180546106b890611320565b80601f01602080910402602001604051908101604052809291908181526020018280546106e490611320565b80156107315780601f1061070657610100808354040283529160200191610731565b820191906000526020600020905b81548152906001019060200180831161071457829003601f168201915b505050505081525050905082565b6002602052600090815260409020805460018201805491929161076190611320565b80601f016020809104026020016040519081016040528092919081815260200182805461078d90611320565b80156107da5780601f106107af576101008083540402835291602001916107da565b820191906000526020600020905b8154815290600101906020018083116107bd57829003601f168201915b5050505050908060020180546107ef90611320565b80601f016020809104026020016040519081016040528092919081815260200182805461081b90611320565b80156108685780601f1061083d57610100808354040283529160200191610868565b820191906000526020600020905b81548152906001019060200180831161084b57829003601f168201915b50505050509080600301805461087d90611320565b80601f01602080910402602001604051908101604052809291908181526020018280546108a990611320565b80156108f65780601f106108cb576101008083540402835291602001916108f6565b820191906000526020600020905b8154815290600101906020018083116108d957829003601f168201915b50505050509080600401549080600501549080600601549080600701805461091d90611320565b80601f016020809104026020016040519081016040528092919081815260200182805461094990611320565b80156109965780601f1061096b57610100808354040283529160200191610996565b820191906000526020600020905b81548152906001019060200180831161097957829003601f168201915b5050505050905088565b60006002600083815260200190815260200160002060405180610100016040529081600082015481526020016001820180546109db90611320565b80601f0160208091040260200160405190810160405280929190818152602001828054610a0790611320565b8015610a545780601f10610a2957610100808354040283529160200191610a54565b820191906000526020600020905b815481529060010190602001808311610a3757829003601f168201915b50505050508152602001600282018054610a6d90611320565b80601f0160208091040260200160405190810160405280929190818152602001828054610a9990611320565b8015610ae65780601f10610abb57610100808354040283529160200191610ae6565b820191906000526020600020905b815481529060010190602001808311610ac957829003601f168201915b50505050508152602001600382018054610aff90611320565b80601f0160208091040260200160405190810160405280929190818152602001828054610b2b90611320565b8015610b785780601f10610b4d57610100808354040283529160200191610b78565b820191906000526020600020905b815481529060010190602001808311610b5b57829003601f168201915b50505050508152602001600482015481526020016005820154815260200160068201548152602001600782018054610baf90611320565b80601f0160208091040260200160405190810160405280929190818152602001828054610bdb90611320565b8015610c285780601f10610bfd57610100808354040283529160200191610c28565b820191906000526020600020905b815481529060010190602001808311610c0b57829003601f168201915b50505050508152505090508060800151341015610c4457600080fd5b60008160c0015111610c5557600080fd5b6040805180820182524281526020808201849052336000908152600490915291822080549192610c8483611370565b90915550503360009081526003602090815260408083206004835281842054845282529091208251815581830151805160018301908155928101518493906002840190610cd190826113d8565b5060408201516002820190610ce690826113d8565b5060608201516003820190610cfb90826113d8565b506080820151600482015560a0820151600582015560c0820151600682015560e08201516007820190610d2e90826113d8565b50505060c0840151610d44925060019150611498565b600084815260026020526040808220600601929092556001549054608085015192516323b872dd60e01b81523360048201526001600160a01b039182166024820152604481019390935216906323b872dd906064016020604051808303816000875af1158015610db8573d6000803e3d6000fd5b505050506040513d601f19601f82011682018060405250810190610ddc91906114b1565b610e2c5760405162461bcd60e51b815260206004820152601060248201527f5472616e73666572206661696c65642e00000000000000000000000000000000604482015260640160405180910390fd5b3360008181526004602090815260409182902054855183519485529184015282820152517f1cbc5ab135991bd2b6a4b034a04aa2aa086dac1371cb9b16b8b5e2ed6b036bed9181900360600190a1505050565b6000546001600160a01b03163314610e9657600080fd5b604080516101008101825289815260208082018a81528284018a9052606083018990526080830188905260a0830187905260c0830186905260e0830185905260008c81526002909252929020815181559151909182916001820190610efb90826113d8565b5060408201516002820190610f1090826113d8565b5060608201516003820190610f2590826113d8565b506080820151600482015560a0820151600582015560c0820151600682015560e08201516007820190610f5890826113d8565b509050507ffdbe2a012c10ec01592653978eaa09b5ca60b143a0e617505b2ebcbd911ec5b8888685604051610f8f939291906114d3565b60405180910390a1505050505050505050565b600060208284031215610fb457600080fd5b5035919050565b6000815180845260005b81811015610fe157602081850181015186830182015201610fc5565b506000602082860101526020601f19601f83011685010191505092915050565b600061010082518452602083015181602086015261102182860182610fbb565b9150506040830151848203604086015261103b8282610fbb565b915050606083015184820360608601526110558282610fbb565b9150506080830151608085015260a083015160a085015260c083015160c085015260e083015184820360e086015261108d8282610fbb565b95945050505050565b6020815260006110a96020830184611001565b9392505050565b80356001600160a01b03811681146110c757600080fd5b919050565b6000602082840312156110de57600080fd5b6110a9826110b0565b600080604083850312156110fa57600080fd5b611103836110b0565b946020939093013593505050565b82815260406020820152600061112a6040830184611001565b949350505050565b60006101008a835280602084015261114c8184018b610fbb565b90508281036040840152611160818a610fbb565b905082810360608401526111748189610fbb565b90508660808401528560a08401528460c084015282810360e084015261119a8185610fbb565b9b9a5050505050505050505050565b634e487b7160e01b600052604160045260246000fd5b600082601f8301126111d057600080fd5b813567ffffffffffffffff808211156111eb576111eb6111a9565b604051601f8301601f19908116603f01168101908282118183101715611213576112136111a9565b8160405283815286602085880101111561122c57600080fd5b836020870160208301376000602085830101528094505050505092915050565b600080600080600080600080610100898b03121561126957600080fd5b88359750602089013567ffffffffffffffff8082111561128857600080fd5b6112948c838d016111bf565b985060408b01359150808211156112aa57600080fd5b6112b68c838d016111bf565b975060608b01359150808211156112cc57600080fd5b6112d88c838d016111bf565b965060808b0135955060a08b0135945060c08b0135935060e08b013591508082111561130357600080fd5b506113108b828c016111bf565b9150509295985092959890939650565b600181811c9082168061133457607f821691505b60208210810361135457634e487b7160e01b600052602260045260246000fd5b50919050565b634e487b7160e01b600052601160045260246000fd5b6000600182016113825761138261135a565b5060010190565b601f8211156113d357600081815260208120601f850160051c810160208610156113b05750805b601f850160051c820191505b818110156113cf578281556001016113bc565b5050505b505050565b815167ffffffffffffffff8111156113f2576113f26111a9565b611406816114008454611320565b84611389565b602080601f83116001811461143b57600084156114235750858301515b600019600386901b1c1916600185901b1785556113cf565b600085815260208120601f198616915b8281101561146a5788860151825594840194600190910190840161144b565b50858210156114885787850151600019600388901b60f8161c191681555b5050505050600190811b01905550565b818103818111156114ab576114ab61135a565b92915050565b6000602082840312156114c357600080fd5b815180151581146110a957600080fd5b6060815260006114e66060830186610fbb565b6020830194909452506040015291905056fea164736f6c6343000814000a",
  "linkReferences": {},
  "deployedLinkReferences": {}
}